{
  "_format": "hh-sol-artifact-1",
  "contractName": "BulkNFT",
  "sourceName": "contracts/bulknft.sol",
  "abi": [
    {
      "inputs": [
        {
          "internalType": "string",
          "name": "name",
          "type": "string"
        },
        {
          "internalType": "string",
          "name": "symbol",
          "type": "string"
        },
        {
          "internalType": "string",
          "name": "baseTokenURI",
          "type": "string"
        }
      ],
      "stateMutability": "nonpayable",
      "type": "constructor"
    },
    {
      "anonymous": false,
      "inputs": [
        {
          "indexed": true,
          "internalType": "address",
          "name": "owner",
          "type": "address"
        },
        {
          "indexed": true,
          "internalType": "address",
          "name": "approved",
          "type": "address"
        },
        {
          "indexed": true,
          "internalType": "uint256",
          "name": "tokenId",
          "type": "uint256"
        }
      ],
      "name": "Approval",
      "type": "event"
    },
    {
      "anonymous": false,
      "inputs": [
        {
          "indexed": true,
          "internalType": "address",
          "name": "owner",
          "type": "address"
        },
        {
          "indexed": true,
          "internalType": "address",
          "name": "operator",
          "type": "address"
        },
        {
          "indexed": false,
          "internalType": "bool",
          "name": "approved",
          "type": "bool"
        }
      ],
      "name": "ApprovalForAll",
      "type": "event"
    },
    {
      "anonymous": false,
      "inputs": [
        {
          "indexed": true,
          "internalType": "address",
          "name": "previousOwner",
          "type": "address"
        },
        {
          "indexed": true,
          "internalType": "address",
          "name": "newOwner",
          "type": "address"
        }
      ],
      "name": "OwnershipTransferred",
      "type": "event"
    },
    {
      "anonymous": false,
      "inputs": [
        {
          "indexed": true,
          "internalType": "address",
          "name": "from",
          "type": "address"
        },
        {
          "indexed": true,
          "internalType": "address",
          "name": "to",
          "type": "address"
        },
        {
          "indexed": true,
          "internalType": "uint256",
          "name": "tokenId",
          "type": "uint256"
        }
      ],
      "name": "Transfer",
      "type": "event"
    },
    {
      "inputs": [
        {
          "internalType": "address",
          "name": "to",
          "type": "address"
        },
        {
          "internalType": "uint256",
          "name": "tokenId",
          "type": "uint256"
        }
      ],
      "name": "approve",
      "outputs": [],
      "stateMutability": "nonpayable",
      "type": "function"
    },
    {
      "inputs": [
        {
          "internalType": "address",
          "name": "owner",
          "type": "address"
        }
      ],
      "name": "balanceOf",
      "outputs": [
        {
          "internalType": "uint256",
          "name": "",
          "type": "uint256"
        }
      ],
      "stateMutability": "view",
      "type": "function"
    },
    {
      "inputs": [
        {
          "internalType": "uint256",
          "name": "tokenId",
          "type": "uint256"
        }
      ],
      "name": "getApproved",
      "outputs": [
        {
          "internalType": "address",
          "name": "",
          "type": "address"
        }
      ],
      "stateMutability": "view",
      "type": "function"
    },
    {
      "inputs": [
        {
          "internalType": "address",
          "name": "owner",
          "type": "address"
        }
      ],
      "name": "getOwnedNFTs",
      "outputs": [
        {
          "internalType": "uint256[]",
          "name": "",
          "type": "uint256[]"
        }
      ],
      "stateMutability": "view",
      "type": "function"
    },
    {
      "inputs": [
        {
          "internalType": "address",
          "name": "owner",
          "type": "address"
        },
        {
          "internalType": "address",
          "name": "operator",
          "type": "address"
        }
      ],
      "name": "isApprovedForAll",
      "outputs": [
        {
          "internalType": "bool",
          "name": "",
          "type": "bool"
        }
      ],
      "stateMutability": "view",
      "type": "function"
    },
    {
      "inputs": [
        {
          "internalType": "address",
          "name": "recipient",
          "type": "address"
        },
        {
          "internalType": "uint256",
          "name": "amount",
          "type": "uint256"
        }
      ],
      "name": "mint",
      "outputs": [],
      "stateMutability": "payable",
      "type": "function"
    },
    {
      "inputs": [],
      "name": "name",
      "outputs": [
        {
          "internalType": "string",
          "name": "",
          "type": "string"
        }
      ],
      "stateMutability": "view",
      "type": "function"
    },
    {
      "inputs": [],
      "name": "owner",
      "outputs": [
        {
          "internalType": "address",
          "name": "",
          "type": "address"
        }
      ],
      "stateMutability": "view",
      "type": "function"
    },
    {
      "inputs": [
        {
          "internalType": "uint256",
          "name": "tokenId",
          "type": "uint256"
        }
      ],
      "name": "ownerOf",
      "outputs": [
        {
          "internalType": "address",
          "name": "",
          "type": "address"
        }
      ],
      "stateMutability": "view",
      "type": "function"
    },
    {
      "inputs": [],
      "name": "renounceOwnership",
      "outputs": [],
      "stateMutability": "nonpayable",
      "type": "function"
    },
    {
      "inputs": [
        {
          "internalType": "address",
          "name": "from",
          "type": "address"
        },
        {
          "internalType": "address",
          "name": "to",
          "type": "address"
        },
        {
          "internalType": "uint256",
          "name": "tokenId",
          "type": "uint256"
        }
      ],
      "name": "safeTransferFrom",
      "outputs": [],
      "stateMutability": "nonpayable",
      "type": "function"
    },
    {
      "inputs": [
        {
          "internalType": "address",
          "name": "from",
          "type": "address"
        },
        {
          "internalType": "address",
          "name": "to",
          "type": "address"
        },
        {
          "internalType": "uint256",
          "name": "tokenId",
          "type": "uint256"
        },
        {
          "internalType": "bytes",
          "name": "_data",
          "type": "bytes"
        }
      ],
      "name": "safeTransferFrom",
      "outputs": [],
      "stateMutability": "nonpayable",
      "type": "function"
    },
    {
      "inputs": [
        {
          "internalType": "address",
          "name": "operator",
          "type": "address"
        },
        {
          "internalType": "bool",
          "name": "approved",
          "type": "bool"
        }
      ],
      "name": "setApprovalForAll",
      "outputs": [],
      "stateMutability": "nonpayable",
      "type": "function"
    },
    {
      "inputs": [
        {
          "internalType": "string",
          "name": "newBaseURI",
          "type": "string"
        }
      ],
      "name": "setBaseURI",
      "outputs": [],
      "stateMutability": "nonpayable",
      "type": "function"
    },
    {
      "inputs": [
        {
          "internalType": "bytes4",
          "name": "interfaceId",
          "type": "bytes4"
        }
      ],
      "name": "supportsInterface",
      "outputs": [
        {
          "internalType": "bool",
          "name": "",
          "type": "bool"
        }
      ],
      "stateMutability": "view",
      "type": "function"
    },
    {
      "inputs": [],
      "name": "symbol",
      "outputs": [
        {
          "internalType": "string",
          "name": "",
          "type": "string"
        }
      ],
      "stateMutability": "view",
      "type": "function"
    },
    {
      "inputs": [
        {
          "internalType": "uint256",
          "name": "tokenId",
          "type": "uint256"
        }
      ],
      "name": "tokenURI",
      "outputs": [
        {
          "internalType": "string",
          "name": "",
          "type": "string"
        }
      ],
      "stateMutability": "view",
      "type": "function"
    },
    {
      "inputs": [],
      "name": "totalSupply",
      "outputs": [
        {
          "internalType": "uint256",
          "name": "",
          "type": "uint256"
        }
      ],
      "stateMutability": "view",
      "type": "function"
    },
    {
      "inputs": [
        {
          "internalType": "address",
          "name": "from",
          "type": "address"
        },
        {
          "internalType": "address",
          "name": "to",
          "type": "address"
        },
        {
          "internalType": "uint256",
          "name": "tokenId",
          "type": "uint256"
        }
      ],
      "name": "transferFrom",
      "outputs": [],
      "stateMutability": "nonpayable",
      "type": "function"
    },
    {
      "inputs": [
        {
          "internalType": "address",
          "name": "newOwner",
          "type": "address"
        }
      ],
      "name": "transferOwnership",
      "outputs": [],
      "stateMutability": "nonpayable",
      "type": "function"
    }
  ],
  "bytecode": "0x60806040523480156200001157600080fd5b5060405162003692380380620036928339818101604052810190620000379190620002a7565b828281600090805190602001906200005192919062000185565b5080600190805190602001906200006a92919062000185565b5050506200008d62000081620000b760201b60201c565b620000bf60201b60201c565b8060089080519060200190620000a592919062000185565b50600060078190555050505062000479565b600033905090565b6000600660009054906101000a900473ffffffffffffffffffffffffffffffffffffffff16905081600660006101000a81548173ffffffffffffffffffffffffffffffffffffffff021916908373ffffffffffffffffffffffffffffffffffffffff1602179055508173ffffffffffffffffffffffffffffffffffffffff168173ffffffffffffffffffffffffffffffffffffffff167f8be0079c531659141344cd1fd0a4f28419497f9722a3daafe3b4186f6b6457e060405160405180910390a35050565b8280546200019390620003e5565b90600052602060002090601f016020900481019282620001b7576000855562000203565b82601f10620001d257805160ff191683800117855562000203565b8280016001018555821562000203579182015b8281111562000202578251825591602001919060010190620001e5565b5b50905062000212919062000216565b5090565b5b808211156200023157600081600090555060010162000217565b5090565b60006200024c62000246846200037c565b62000348565b9050828152602081018484840111156200026557600080fd5b62000272848285620003af565b509392505050565b600082601f8301126200028c57600080fd5b81516200029e84826020860162000235565b91505092915050565b600080600060608486031215620002bd57600080fd5b600084015167ffffffffffffffff811115620002d857600080fd5b620002e6868287016200027a565b935050602084015167ffffffffffffffff8111156200030457600080fd5b62000312868287016200027a565b925050604084015167ffffffffffffffff8111156200033057600080fd5b6200033e868287016200027a565b9150509250925092565b6000604051905081810181811067ffffffffffffffff821117156200037257620003716200044a565b5b8060405250919050565b600067ffffffffffffffff8211156200039a57620003996200044a565b5b601f19601f8301169050602081019050919050565b60005b83811015620003cf578082015181840152602081019050620003b2565b83811115620003df576000848401525b50505050565b60006002820490506001821680620003fe57607f821691505b602082108114156200041557620004146200041b565b5b50919050565b7f4e487b7100000000000000000000000000000000000000000000000000000000600052602260045260246000fd5b7f4e487b7100000000000000000000000000000000000000000000000000000000600052604160045260246000fd5b61320980620004896000396000f3fe60806040526004361061011f5760003560e01c80636352211e116100a0578063a22cb46511610064578063a22cb465146103d8578063b88d4fde14610401578063c87b56dd1461042a578063e985e9c514610467578063f2fde38b146104a45761011f565b80636352211e146102f157806370a082311461032e578063715018a61461036b5780638da5cb5b1461038257806395d89b41146103ad5761011f565b806318160ddd116100e757806318160ddd1461022f57806323b872dd1461025a57806340c10f191461028357806342842e0e1461029f57806355f804b3146102c85761011f565b806301ffc9a71461012457806306fdde0314610161578063081812fc1461018c578063095ea7b3146101c957806318148f1b146101f2575b600080fd5b34801561013057600080fd5b5061014b60048036038101906101469190612180565b6104cd565b6040516101589190612ae8565b60405180910390f35b34801561016d57600080fd5b506101766105af565b6040516101839190612b03565b60405180910390f35b34801561019857600080fd5b506101b360048036038101906101ae9190612213565b610641565b6040516101c09190612a5f565b60405180910390f35b3480156101d557600080fd5b506101f060048036038101906101eb9190612144565b6106c6565b005b3480156101fe57600080fd5b5061021960048036038101906102149190611fd9565b6107de565b6040516102269190612ac6565b60405180910390f35b34801561023b57600080fd5b50610244610875565b6040516102519190612d65565b60405180910390f35b34801561026657600080fd5b50610281600480360381019061027c919061203e565b61087f565b005b61029d60048036038101906102989190612144565b6108df565b005b3480156102ab57600080fd5b506102c660048036038101906102c1919061203e565b610a28565b005b3480156102d457600080fd5b506102ef60048036038101906102ea91906121d2565b610a48565b005b3480156102fd57600080fd5b5061031860048036038101906103139190612213565b610ade565b6040516103259190612a5f565b60405180910390f35b34801561033a57600080fd5b5061035560048036038101906103509190611fd9565b610b90565b6040516103629190612d65565b60405180910390f35b34801561037757600080fd5b50610380610c48565b005b34801561038e57600080fd5b50610397610cd0565b6040516103a49190612a5f565b60405180910390f35b3480156103b957600080fd5b506103c2610cfa565b6040516103cf9190612b03565b60405180910390f35b3480156103e457600080fd5b506103ff60048036038101906103fa9190612108565b610d8c565b005b34801561040d57600080fd5b506104286004803603810190610423919061208d565b610da2565b005b34801561043657600080fd5b50610451600480360381019061044c9190612213565b610e04565b60405161045e9190612b03565b60405180910390f35b34801561047357600080fd5b5061048e60048036038101906104899190612002565b610e35565b60405161049b9190612ae8565b60405180910390f35b3480156104b057600080fd5b506104cb60048036038101906104c69190611fd9565b610ec9565b005b60007f80ac58cd000000000000000000000000000000000000000000000000000000007bffffffffffffffffffffffffffffffffffffffffffffffffffffffff1916827bffffffffffffffffffffffffffffffffffffffffffffffffffffffff1916148061059857507f5b5e139f000000000000000000000000000000000000000000000000000000007bffffffffffffffffffffffffffffffffffffffffffffffffffffffff1916827bffffffffffffffffffffffffffffffffffffffffffffffffffffffff1916145b806105a857506105a782610fc1565b5b9050919050565b6060600080546105be90612ffe565b80601f01602080910402602001604051908101604052809291908181526020018280546105ea90612ffe565b80156106375780601f1061060c57610100808354040283529160200191610637565b820191906000526020600020905b81548152906001019060200180831161061a57829003601f168201915b5050505050905090565b600061064c8261102b565b61068b576040517f08c379a000000000000000000000000000000000000000000000000000000000815260040161068290612ca5565b60405180910390fd5b6004600083815260200190815260200160002060009054906101000a900473ffffffffffffffffffffffffffffffffffffffff169050919050565b60006106d182610ade565b90508073ffffffffffffffffffffffffffffffffffffffff168373ffffffffffffffffffffffffffffffffffffffff161415610742576040517f08c379a000000000000000000000000000000000000000000000000000000000815260040161073990612d25565b60405180910390fd5b8073ffffffffffffffffffffffffffffffffffffffff16610761611097565b73ffffffffffffffffffffffffffffffffffffffff161480610790575061078f8161078a611097565b610e35565b5b6107cf576040517f08c379a00000000000000000000000000000000000000000000000000000000081526004016107c690612c25565b60405180910390fd5b6107d9838361109f565b505050565b6060600960008373ffffffffffffffffffffffffffffffffffffffff1673ffffffffffffffffffffffffffffffffffffffff16815260200190815260200160002080548060200260200160405190810160405280929190818152602001828054801561086957602002820191906000526020600020905b815481526020019060010190808311610855575b50505050509050919050565b6000600754905090565b61089061088a611097565b82611158565b6108cf576040517f08c379a00000000000000000000000000000000000000000000000000000000081526004016108c690612d45565b60405180910390fd5b6108da838383611236565b505050565b600a816007546108ef9190612e8d565b1115610930576040517f08c379a000000000000000000000000000000000000000000000000000000000815260040161092790612b45565b60405180910390fd5b655af3107a4000341015610979576040517f08c379a000000000000000000000000000000000000000000000000000000000815260040161097090612be5565b60405180910390fd5b60005b81811015610a235761099083600754611492565b600960008473ffffffffffffffffffffffffffffffffffffffff1673ffffffffffffffffffffffffffffffffffffffff168152602001908152602001600020600754908060018154018082558091505060019003906000526020600020016000909190919091505560076000815480929190610a0b90613030565b91905055508080610a1b90613030565b91505061097c565b505050565b610a4383838360405180602001604052806000815250610da2565b505050565b610a50611097565b73ffffffffffffffffffffffffffffffffffffffff16610a6e610cd0565b73ffffffffffffffffffffffffffffffffffffffff1614610ac4576040517f08c379a0000000000000000000000000000000000000000000000000000000008152600401610abb90612cc5565b60405180910390fd5b8060089080519060200190610ada929190611dfd565b5050565b6000806002600084815260200190815260200160002060009054906101000a900473ffffffffffffffffffffffffffffffffffffffff169050600073ffffffffffffffffffffffffffffffffffffffff168173ffffffffffffffffffffffffffffffffffffffff161415610b87576040517f08c379a0000000000000000000000000000000000000000000000000000000008152600401610b7e90612c65565b60405180910390fd5b80915050919050565b60008073ffffffffffffffffffffffffffffffffffffffff168273ffffffffffffffffffffffffffffffffffffffff161415610c01576040517f08c379a0000000000000000000000000000000000000000000000000000000008152600401610bf890612c45565b60405180910390fd5b600360008373ffffffffffffffffffffffffffffffffffffffff1673ffffffffffffffffffffffffffffffffffffffff168152602001908152602001600020549050919050565b610c50611097565b73ffffffffffffffffffffffffffffffffffffffff16610c6e610cd0565b73ffffffffffffffffffffffffffffffffffffffff1614610cc4576040517f08c379a0000000000000000000000000000000000000000000000000000000008152600401610cbb90612cc5565b60405180910390fd5b610cce60006114b0565b565b6000600660009054906101000a900473ffffffffffffffffffffffffffffffffffffffff16905090565b606060018054610d0990612ffe565b80601f0160208091040260200160405190810160405280929190818152602001828054610d3590612ffe565b8015610d825780601f10610d5757610100808354040283529160200191610d82565b820191906000526020600020905b815481529060010190602001808311610d6557829003601f168201915b5050505050905090565b610d9e610d97611097565b8383611576565b5050565b610db3610dad611097565b83611158565b610df2576040517f08c379a0000000000000000000000000000000000000000000000000000000008152600401610de990612d45565b60405180910390fd5b610dfe848484846116e3565b50505050565b6060610e0f8261173f565b604051602001610e1f9190612a3d565b6040516020818303038152906040529050919050565b6000600560008473ffffffffffffffffffffffffffffffffffffffff1673ffffffffffffffffffffffffffffffffffffffff16815260200190815260200160002060008373ffffffffffffffffffffffffffffffffffffffff1673ffffffffffffffffffffffffffffffffffffffff16815260200190815260200160002060009054906101000a900460ff16905092915050565b610ed1611097565b73ffffffffffffffffffffffffffffffffffffffff16610eef610cd0565b73ffffffffffffffffffffffffffffffffffffffff1614610f45576040517f08c379a0000000000000000000000000000000000000000000000000000000008152600401610f3c90612cc5565b60405180910390fd5b600073ffffffffffffffffffffffffffffffffffffffff168173ffffffffffffffffffffffffffffffffffffffff161415610fb5576040517f08c379a0000000000000000000000000000000000000000000000000000000008152600401610fac90612b65565b60405180910390fd5b610fbe816114b0565b50565b60007f01ffc9a7000000000000000000000000000000000000000000000000000000007bffffffffffffffffffffffffffffffffffffffffffffffffffffffff1916827bffffffffffffffffffffffffffffffffffffffffffffffffffffffff1916149050919050565b60008073ffffffffffffffffffffffffffffffffffffffff166002600084815260200190815260200160002060009054906101000a900473ffffffffffffffffffffffffffffffffffffffff1673ffffffffffffffffffffffffffffffffffffffff1614159050919050565b600033905090565b816004600083815260200190815260200160002060006101000a81548173ffffffffffffffffffffffffffffffffffffffff021916908373ffffffffffffffffffffffffffffffffffffffff160217905550808273ffffffffffffffffffffffffffffffffffffffff1661111283610ade565b73ffffffffffffffffffffffffffffffffffffffff167f8c5be1e5ebec7d5bd14f71427d1e84f3dd0314c0f7b2291e5b200ac8c7c3b92560405160405180910390a45050565b60006111638261102b565b6111a2576040517f08c379a000000000000000000000000000000000000000000000000000000000815260040161119990612c05565b60405180910390fd5b60006111ad83610ade565b90508073ffffffffffffffffffffffffffffffffffffffff168473ffffffffffffffffffffffffffffffffffffffff16148061121c57508373ffffffffffffffffffffffffffffffffffffffff1661120484610641565b73ffffffffffffffffffffffffffffffffffffffff16145b8061122d575061122c8185610e35565b5b91505092915050565b8273ffffffffffffffffffffffffffffffffffffffff1661125682610ade565b73ffffffffffffffffffffffffffffffffffffffff16146112ac576040517f08c379a00000000000000000000000000000000000000000000000000000000081526004016112a390612ce5565b60405180910390fd5b600073ffffffffffffffffffffffffffffffffffffffff168273ffffffffffffffffffffffffffffffffffffffff16141561131c576040517f08c379a000000000000000000000000000000000000000000000000000000000815260040161131390612ba5565b60405180910390fd5b6113278383836117e6565b61133260008261109f565b6001600360008573ffffffffffffffffffffffffffffffffffffffff1673ffffffffffffffffffffffffffffffffffffffff16815260200190815260200160002060008282546113829190612f14565b925050819055506001600360008473ffffffffffffffffffffffffffffffffffffffff1673ffffffffffffffffffffffffffffffffffffffff16815260200190815260200160002060008282546113d99190612e8d565b92505081905550816002600083815260200190815260200160002060006101000a81548173ffffffffffffffffffffffffffffffffffffffff021916908373ffffffffffffffffffffffffffffffffffffffff160217905550808273ffffffffffffffffffffffffffffffffffffffff168473ffffffffffffffffffffffffffffffffffffffff167fddf252ad1be2c89b69c2b068fc378daa952ba7f163c4a11628f55a4df523b3ef60405160405180910390a4505050565b6114ac8282604051806020016040528060008152506117eb565b5050565b6000600660009054906101000a900473ffffffffffffffffffffffffffffffffffffffff16905081600660006101000a81548173ffffffffffffffffffffffffffffffffffffffff021916908373ffffffffffffffffffffffffffffffffffffffff1602179055508173ffffffffffffffffffffffffffffffffffffffff168173ffffffffffffffffffffffffffffffffffffffff167f8be0079c531659141344cd1fd0a4f28419497f9722a3daafe3b4186f6b6457e060405160405180910390a35050565b8173ffffffffffffffffffffffffffffffffffffffff168373ffffffffffffffffffffffffffffffffffffffff1614156115e5576040517f08c379a00000000000000000000000000000000000000000000000000000000081526004016115dc90612bc5565b60405180910390fd5b80600560008573ffffffffffffffffffffffffffffffffffffffff1673ffffffffffffffffffffffffffffffffffffffff16815260200190815260200160002060008473ffffffffffffffffffffffffffffffffffffffff1673ffffffffffffffffffffffffffffffffffffffff16815260200190815260200160002060006101000a81548160ff0219169083151502179055508173ffffffffffffffffffffffffffffffffffffffff168373ffffffffffffffffffffffffffffffffffffffff167f17307eab39ab6107e8899845ad3d59bd9653f200f220920489ca2b5937696c31836040516116d69190612ae8565b60405180910390a3505050565b6116ee848484611236565b6116fa84848484611846565b611739576040517f08c379a000000000000000000000000000000000000000000000000000000000815260040161173090612b25565b60405180910390fd5b50505050565b606061174a8261102b565b611789576040517f08c379a000000000000000000000000000000000000000000000000000000000815260040161178090612d05565b60405180910390fd5b60006117936119dd565b905060008151116117b357604051806020016040528060008152506117de565b806117bd84611a6f565b6040516020016117ce929190612a19565b6040516020818303038152906040525b915050919050565b505050565b6117f58383611c1c565b6118026000848484611846565b611841576040517f08c379a000000000000000000000000000000000000000000000000000000000815260040161183890612b25565b60405180910390fd5b505050565b60006118678473ffffffffffffffffffffffffffffffffffffffff16611dea565b156119d0578373ffffffffffffffffffffffffffffffffffffffff1663150b7a02611890611097565b8786866040518563ffffffff1660e01b81526004016118b29493929190612a7a565b602060405180830381600087803b1580156118cc57600080fd5b505af19250505080156118fd57506040513d601f19601f820116820180604052508101906118fa91906121a9565b60015b611980573d806000811461192d576040519150601f19603f3d011682016040523d82523d6000602084013e611932565b606091505b50600081511415611978576040517f08c379a000000000000000000000000000000000000000000000000000000000815260040161196f90612b25565b60405180910390fd5b805181602001fd5b63150b7a0260e01b7bffffffffffffffffffffffffffffffffffffffffffffffffffffffff1916817bffffffffffffffffffffffffffffffffffffffffffffffffffffffff1916149150506119d5565b600190505b949350505050565b6060600880546119ec90612ffe565b80601f0160208091040260200160405190810160405280929190818152602001828054611a1890612ffe565b8015611a655780601f10611a3a57610100808354040283529160200191611a65565b820191906000526020600020905b815481529060010190602001808311611a4857829003601f168201915b5050505050905090565b60606000821415611ab7576040518060400160405280600181526020017f30000000000000000000000000000000000000000000000000000000000000008152509050611c17565b600082905060005b60008214611ae9578080611ad290613030565b915050600a82611ae29190612ee3565b9150611abf565b60008167ffffffffffffffff811115611b2b577f4e487b7100000000000000000000000000000000000000000000000000000000600052604160045260246000fd5b6040519080825280601f01601f191660200182016040528015611b5d5781602001600182028036833780820191505090505b5090505b60008514611c1057600182611b769190612f14565b9150600a85611b859190613079565b6030611b919190612e8d565b60f81b818381518110611bcd577f4e487b7100000000000000000000000000000000000000000000000000000000600052603260045260246000fd5b60200101907effffffffffffffffffffffffffffffffffffffffffffffffffffffffffffff1916908160001a905350600a85611c099190612ee3565b9450611b61565b8093505050505b919050565b600073ffffffffffffffffffffffffffffffffffffffff168273ffffffffffffffffffffffffffffffffffffffff161415611c8c576040517f08c379a0000000000000000000000000000000000000000000000000000000008152600401611c8390612c85565b60405180910390fd5b611c958161102b565b15611cd5576040517f08c379a0000000000000000000000000000000000000000000000000000000008152600401611ccc90612b85565b60405180910390fd5b611ce1600083836117e6565b6001600360008473ffffffffffffffffffffffffffffffffffffffff1673ffffffffffffffffffffffffffffffffffffffff1681526020019081526020016000206000828254611d319190612e8d565b92505081905550816002600083815260200190815260200160002060006101000a81548173ffffffffffffffffffffffffffffffffffffffff021916908373ffffffffffffffffffffffffffffffffffffffff160217905550808273ffffffffffffffffffffffffffffffffffffffff16600073ffffffffffffffffffffffffffffffffffffffff167fddf252ad1be2c89b69c2b068fc378daa952ba7f163c4a11628f55a4df523b3ef60405160405180910390a45050565b600080823b905060008111915050919050565b828054611e0990612ffe565b90600052602060002090601f016020900481019282611e2b5760008555611e72565b82601f10611e4457805160ff1916838001178555611e72565b82800160010185558215611e72579182015b82811115611e71578251825591602001919060010190611e56565b5b509050611e7f9190611e83565b5090565b5b80821115611e9c576000816000905550600101611e84565b5090565b6000611eb3611eae84612db1565b612d80565b905082815260208101848484011115611ecb57600080fd5b611ed6848285612fbc565b509392505050565b6000611ef1611eec84612de1565b612d80565b905082815260208101848484011115611f0957600080fd5b611f14848285612fbc565b509392505050565b600081359050611f2b81613177565b92915050565b600081359050611f408161318e565b92915050565b600081359050611f55816131a5565b92915050565b600081519050611f6a816131a5565b92915050565b600082601f830112611f8157600080fd5b8135611f91848260208601611ea0565b91505092915050565b600082601f830112611fab57600080fd5b8135611fbb848260208601611ede565b91505092915050565b600081359050611fd3816131bc565b92915050565b600060208284031215611feb57600080fd5b6000611ff984828501611f1c565b91505092915050565b6000806040838503121561201557600080fd5b600061202385828601611f1c565b925050602061203485828601611f1c565b9150509250929050565b60008060006060848603121561205357600080fd5b600061206186828701611f1c565b935050602061207286828701611f1c565b925050604061208386828701611fc4565b9150509250925092565b600080600080608085870312156120a357600080fd5b60006120b187828801611f1c565b94505060206120c287828801611f1c565b93505060406120d387828801611fc4565b925050606085013567ffffffffffffffff8111156120f057600080fd5b6120fc87828801611f70565b91505092959194509250565b6000806040838503121561211b57600080fd5b600061212985828601611f1c565b925050602061213a85828601611f31565b9150509250929050565b6000806040838503121561215757600080fd5b600061216585828601611f1c565b925050602061217685828601611fc4565b9150509250929050565b60006020828403121561219257600080fd5b60006121a084828501611f46565b91505092915050565b6000602082840312156121bb57600080fd5b60006121c984828501611f5b565b91505092915050565b6000602082840312156121e457600080fd5b600082013567ffffffffffffffff8111156121fe57600080fd5b61220a84828501611f9a565b91505092915050565b60006020828403121561222557600080fd5b600061223384828501611fc4565b91505092915050565b600061224883836129fb565b60208301905092915050565b61225d81612f48565b82525050565b600061226e82612e21565b6122788185612e4f565b935061228383612e11565b8060005b838110156122b457815161229b888261223c565b97506122a683612e42565b925050600181019050612287565b5085935050505092915050565b6122ca81612f5a565b82525050565b60006122db82612e2c565b6122e58185612e60565b93506122f5818560208601612fcb565b6122fe81613166565b840191505092915050565b600061231482612e37565b61231e8185612e71565b935061232e818560208601612fcb565b61233781613166565b840191505092915050565b600061234d82612e37565b6123578185612e82565b9350612367818560208601612fcb565b80840191505092915050565b6000612380603283612e71565b91507f4552433732313a207472616e7366657220746f206e6f6e20455243373231526560008301527f63656976657220696d706c656d656e74657200000000000000000000000000006020830152604082019050919050565b60006123e6601b83612e71565b91507f45786365656473206d6178696d756d20746f6b656e206c696d697400000000006000830152602082019050919050565b6000612426602683612e71565b91507f4f776e61626c653a206e6577206f776e657220697320746865207a65726f206160008301527f64647265737300000000000000000000000000000000000000000000000000006020830152604082019050919050565b600061248c601c83612e71565b91507f4552433732313a20746f6b656e20616c7265616479206d696e746564000000006000830152602082019050919050565b60006124cc602483612e71565b91507f4552433732313a207472616e7366657220746f20746865207a65726f2061646460008301527f72657373000000000000000000000000000000000000000000000000000000006020830152604082019050919050565b6000612532601983612e71565b91507f4552433732313a20617070726f766520746f2063616c6c6572000000000000006000830152602082019050919050565b6000612572601483612e71565b91507f496e73756666696369656e742062616c616e63650000000000000000000000006000830152602082019050919050565b60006125b2602c83612e71565b91507f4552433732313a206f70657261746f7220717565727920666f72206e6f6e657860008301527f697374656e7420746f6b656e00000000000000000000000000000000000000006020830152604082019050919050565b6000612618603883612e71565b91507f4552433732313a20617070726f76652063616c6c6572206973206e6f74206f7760008301527f6e6572206e6f7220617070726f76656420666f7220616c6c00000000000000006020830152604082019050919050565b600061267e602a83612e71565b91507f4552433732313a2062616c616e636520717565727920666f7220746865207a6560008301527f726f2061646472657373000000000000000000000000000000000000000000006020830152604082019050919050565b60006126e4602983612e71565b91507f4552433732313a206f776e657220717565727920666f72206e6f6e657869737460008301527f656e7420746f6b656e00000000000000000000000000000000000000000000006020830152604082019050919050565b600061274a602083612e71565b91507f4552433732313a206d696e7420746f20746865207a65726f20616464726573736000830152602082019050919050565b600061278a602c83612e71565b91507f4552433732313a20617070726f76656420717565727920666f72206e6f6e657860008301527f697374656e7420746f6b656e00000000000000000000000000000000000000006020830152604082019050919050565b60006127f0600583612e82565b91507f2e6a736f6e0000000000000000000000000000000000000000000000000000006000830152600582019050919050565b6000612830602083612e71565b91507f4f776e61626c653a2063616c6c6572206973206e6f7420746865206f776e65726000830152602082019050919050565b6000612870602983612e71565b91507f4552433732313a207472616e73666572206f6620746f6b656e2074686174206960008301527f73206e6f74206f776e00000000000000000000000000000000000000000000006020830152604082019050919050565b60006128d6602f83612e71565b91507f4552433732314d657461646174613a2055524920717565727920666f72206e6f60008301527f6e6578697374656e7420746f6b656e00000000000000000000000000000000006020830152604082019050919050565b600061293c602183612e71565b91507f4552433732313a20617070726f76616c20746f2063757272656e74206f776e6560008301527f72000000000000000000000000000000000000000000000000000000000000006020830152604082019050919050565b60006129a2603183612e71565b91507f4552433732313a207472616e736665722063616c6c6572206973206e6f74206f60008301527f776e6572206e6f7220617070726f7665640000000000000000000000000000006020830152604082019050919050565b612a0481612fb2565b82525050565b612a1381612fb2565b82525050565b6000612a258285612342565b9150612a318284612342565b91508190509392505050565b6000612a498284612342565b9150612a54826127e3565b915081905092915050565b6000602082019050612a746000830184612254565b92915050565b6000608082019050612a8f6000830187612254565b612a9c6020830186612254565b612aa96040830185612a0a565b8181036060830152612abb81846122d0565b905095945050505050565b60006020820190508181036000830152612ae08184612263565b905092915050565b6000602082019050612afd60008301846122c1565b92915050565b60006020820190508181036000830152612b1d8184612309565b905092915050565b60006020820190508181036000830152612b3e81612373565b9050919050565b60006020820190508181036000830152612b5e816123d9565b9050919050565b60006020820190508181036000830152612b7e81612419565b9050919050565b60006020820190508181036000830152612b9e8161247f565b9050919050565b60006020820190508181036000830152612bbe816124bf565b9050919050565b60006020820190508181036000830152612bde81612525565b9050919050565b60006020820190508181036000830152612bfe81612565565b9050919050565b60006020820190508181036000830152612c1e816125a5565b9050919050565b60006020820190508181036000830152612c3e8161260b565b9050919050565b60006020820190508181036000830152612c5e81612671565b9050919050565b60006020820190508181036000830152612c7e816126d7565b9050919050565b60006020820190508181036000830152612c9e8161273d565b9050919050565b60006020820190508181036000830152612cbe8161277d565b9050919050565b60006020820190508181036000830152612cde81612823565b9050919050565b60006020820190508181036000830152612cfe81612863565b9050919050565b60006020820190508181036000830152612d1e816128c9565b9050919050565b60006020820190508181036000830152612d3e8161292f565b9050919050565b60006020820190508181036000830152612d5e81612995565b9050919050565b6000602082019050612d7a6000830184612a0a565b92915050565b6000604051905081810181811067ffffffffffffffff82111715612da757612da6613137565b5b8060405250919050565b600067ffffffffffffffff821115612dcc57612dcb613137565b5b601f19601f8301169050602081019050919050565b600067ffffffffffffffff821115612dfc57612dfb613137565b5b601f19601f8301169050602081019050919050565b6000819050602082019050919050565b600081519050919050565b600081519050919050565b600081519050919050565b6000602082019050919050565b600082825260208201905092915050565b600082825260208201905092915050565b600082825260208201905092915050565b600081905092915050565b6000612e9882612fb2565b9150612ea383612fb2565b9250827fffffffffffffffffffffffffffffffffffffffffffffffffffffffffffffffff03821115612ed857612ed76130aa565b5b828201905092915050565b6000612eee82612fb2565b9150612ef983612fb2565b925082612f0957612f086130d9565b5b828204905092915050565b6000612f1f82612fb2565b9150612f2a83612fb2565b925082821015612f3d57612f3c6130aa565b5b828203905092915050565b6000612f5382612f92565b9050919050565b60008115159050919050565b60007fffffffff0000000000000000000000000000000000000000000000000000000082169050919050565b600073ffffffffffffffffffffffffffffffffffffffff82169050919050565b6000819050919050565b82818337600083830152505050565b60005b83811015612fe9578082015181840152602081019050612fce565b83811115612ff8576000848401525b50505050565b6000600282049050600182168061301657607f821691505b6020821081141561302a57613029613108565b5b50919050565b600061303b82612fb2565b91507fffffffffffffffffffffffffffffffffffffffffffffffffffffffffffffffff82141561306e5761306d6130aa565b5b600182019050919050565b600061308482612fb2565b915061308f83612fb2565b92508261309f5761309e6130d9565b5b828206905092915050565b7f4e487b7100000000000000000000000000000000000000000000000000000000600052601160045260246000fd5b7f4e487b7100000000000000000000000000000000000000000000000000000000600052601260045260246000fd5b7f4e487b7100000000000000000000000000000000000000000000000000000000600052602260045260246000fd5b7f4e487b7100000000000000000000000000000000000000000000000000000000600052604160045260246000fd5b6000601f19601f8301169050919050565b61318081612f48565b811461318b57600080fd5b50565b61319781612f5a565b81146131a257600080fd5b50565b6131ae81612f66565b81146131b957600080fd5b50565b6131c581612fb2565b81146131d057600080fd5b5056fea2646970667358221220df60efd658856e3c3036a83a2567fce4e3ecc2d2d045b6b17c0ca575cabed1bb64736f6c63430008000033",
  "linkReferences": {},
  "deployedLinkReferences": {}
}