{
  "_format": "hh-sol-artifact-1",
  "contractName": "BulkNFT",
  "sourceName": "contracts/bulknft.sol",
  "abi": [
    {
      "inputs": [
        {
          "internalType": "string",
          "name": "name",
          "type": "string"
        },
        {
          "internalType": "string",
          "name": "symbol",
          "type": "string"
        },
        {
          "internalType": "string",
          "name": "baseTokenURI",
          "type": "string"
        }
      ],
      "stateMutability": "nonpayable",
      "type": "constructor"
    },
    {
      "anonymous": false,
      "inputs": [
        {
          "indexed": true,
          "internalType": "address",
          "name": "owner",
          "type": "address"
        },
        {
          "indexed": true,
          "internalType": "address",
          "name": "approved",
          "type": "address"
        },
        {
          "indexed": true,
          "internalType": "uint256",
          "name": "tokenId",
          "type": "uint256"
        }
      ],
      "name": "Approval",
      "type": "event"
    },
    {
      "anonymous": false,
      "inputs": [
        {
          "indexed": true,
          "internalType": "address",
          "name": "owner",
          "type": "address"
        },
        {
          "indexed": true,
          "internalType": "address",
          "name": "operator",
          "type": "address"
        },
        {
          "indexed": false,
          "internalType": "bool",
          "name": "approved",
          "type": "bool"
        }
      ],
      "name": "ApprovalForAll",
      "type": "event"
    },
    {
      "anonymous": false,
      "inputs": [
        {
          "indexed": true,
          "internalType": "address",
          "name": "previousOwner",
          "type": "address"
        },
        {
          "indexed": true,
          "internalType": "address",
          "name": "newOwner",
          "type": "address"
        }
      ],
      "name": "OwnershipTransferred",
      "type": "event"
    },
    {
      "anonymous": false,
      "inputs": [
        {
          "indexed": true,
          "internalType": "address",
          "name": "from",
          "type": "address"
        },
        {
          "indexed": true,
          "internalType": "address",
          "name": "to",
          "type": "address"
        },
        {
          "indexed": true,
          "internalType": "uint256",
          "name": "tokenId",
          "type": "uint256"
        }
      ],
      "name": "Transfer",
      "type": "event"
    },
    {
      "inputs": [
        {
          "internalType": "address",
          "name": "to",
          "type": "address"
        },
        {
          "internalType": "uint256",
          "name": "tokenId",
          "type": "uint256"
        }
      ],
      "name": "approve",
      "outputs": [],
      "stateMutability": "nonpayable",
      "type": "function"
    },
    {
      "inputs": [
        {
          "internalType": "address",
          "name": "owner",
          "type": "address"
        }
      ],
      "name": "balanceOf",
      "outputs": [
        {
          "internalType": "uint256",
          "name": "",
          "type": "uint256"
        }
      ],
      "stateMutability": "view",
      "type": "function"
    },
    {
      "inputs": [
        {
          "internalType": "uint256",
          "name": "tokenId",
          "type": "uint256"
        }
      ],
      "name": "getApproved",
      "outputs": [
        {
          "internalType": "address",
          "name": "",
          "type": "address"
        }
      ],
      "stateMutability": "view",
      "type": "function"
    },
    {
      "inputs": [
        {
          "internalType": "address",
          "name": "owner",
          "type": "address"
        }
      ],
      "name": "getOwnedNFTs",
      "outputs": [
        {
          "internalType": "uint256[]",
          "name": "",
          "type": "uint256[]"
        }
      ],
      "stateMutability": "view",
      "type": "function"
    },
    {
      "inputs": [
        {
          "internalType": "address",
          "name": "owner",
          "type": "address"
        },
        {
          "internalType": "address",
          "name": "operator",
          "type": "address"
        }
      ],
      "name": "isApprovedForAll",
      "outputs": [
        {
          "internalType": "bool",
          "name": "",
          "type": "bool"
        }
      ],
      "stateMutability": "view",
      "type": "function"
    },
    {
      "inputs": [
        {
          "internalType": "address",
          "name": "recipient",
          "type": "address"
        },
        {
          "internalType": "uint256",
          "name": "amount",
          "type": "uint256"
        }
      ],
      "name": "mint",
      "outputs": [],
      "stateMutability": "payable",
      "type": "function"
    },
    {
      "inputs": [],
      "name": "name",
      "outputs": [
        {
          "internalType": "string",
          "name": "",
          "type": "string"
        }
      ],
      "stateMutability": "view",
      "type": "function"
    },
    {
      "inputs": [],
      "name": "owner",
      "outputs": [
        {
          "internalType": "address",
          "name": "",
          "type": "address"
        }
      ],
      "stateMutability": "view",
      "type": "function"
    },
    {
      "inputs": [
        {
          "internalType": "uint256",
          "name": "tokenId",
          "type": "uint256"
        }
      ],
      "name": "ownerOf",
      "outputs": [
        {
          "internalType": "address",
          "name": "",
          "type": "address"
        }
      ],
      "stateMutability": "view",
      "type": "function"
    },
    {
      "inputs": [],
      "name": "renounceOwnership",
      "outputs": [],
      "stateMutability": "nonpayable",
      "type": "function"
    },
    {
      "inputs": [
        {
          "internalType": "address",
          "name": "from",
          "type": "address"
        },
        {
          "internalType": "address",
          "name": "to",
          "type": "address"
        },
        {
          "internalType": "uint256",
          "name": "tokenId",
          "type": "uint256"
        }
      ],
      "name": "safeTransferFrom",
      "outputs": [],
      "stateMutability": "nonpayable",
      "type": "function"
    },
    {
      "inputs": [
        {
          "internalType": "address",
          "name": "from",
          "type": "address"
        },
        {
          "internalType": "address",
          "name": "to",
          "type": "address"
        },
        {
          "internalType": "uint256",
          "name": "tokenId",
          "type": "uint256"
        },
        {
          "internalType": "bytes",
          "name": "_data",
          "type": "bytes"
        }
      ],
      "name": "safeTransferFrom",
      "outputs": [],
      "stateMutability": "nonpayable",
      "type": "function"
    },
    {
      "inputs": [
        {
          "internalType": "address",
          "name": "operator",
          "type": "address"
        },
        {
          "internalType": "bool",
          "name": "approved",
          "type": "bool"
        }
      ],
      "name": "setApprovalForAll",
      "outputs": [],
      "stateMutability": "nonpayable",
      "type": "function"
    },
    {
      "inputs": [
        {
          "internalType": "string",
          "name": "newBaseURI",
          "type": "string"
        }
      ],
      "name": "setBaseURI",
      "outputs": [],
      "stateMutability": "nonpayable",
      "type": "function"
    },
    {
      "inputs": [
        {
          "internalType": "bytes4",
          "name": "interfaceId",
          "type": "bytes4"
        }
      ],
      "name": "supportsInterface",
      "outputs": [
        {
          "internalType": "bool",
          "name": "",
          "type": "bool"
        }
      ],
      "stateMutability": "view",
      "type": "function"
    },
    {
      "inputs": [],
      "name": "symbol",
      "outputs": [
        {
          "internalType": "string",
          "name": "",
          "type": "string"
        }
      ],
      "stateMutability": "view",
      "type": "function"
    },
    {
      "inputs": [
        {
          "internalType": "uint256",
          "name": "tokenId",
          "type": "uint256"
        }
      ],
      "name": "tokenURI",
      "outputs": [
        {
          "internalType": "string",
          "name": "",
          "type": "string"
        }
      ],
      "stateMutability": "view",
      "type": "function"
    },
    {
      "inputs": [],
      "name": "totalSupply",
      "outputs": [
        {
          "internalType": "uint256",
          "name": "",
          "type": "uint256"
        }
      ],
      "stateMutability": "view",
      "type": "function"
    },
    {
      "inputs": [
        {
          "internalType": "address",
          "name": "from",
          "type": "address"
        },
        {
          "internalType": "address",
          "name": "to",
          "type": "address"
        },
        {
          "internalType": "uint256",
          "name": "tokenId",
          "type": "uint256"
        }
      ],
      "name": "transferFrom",
      "outputs": [],
      "stateMutability": "nonpayable",
      "type": "function"
    },
    {
      "inputs": [
        {
          "internalType": "address",
          "name": "newOwner",
          "type": "address"
        }
      ],
      "name": "transferOwnership",
      "outputs": [],
      "stateMutability": "nonpayable",
      "type": "function"
    }
  ],
  "bytecode": "0x60806040523480156200001157600080fd5b50604051620035f2380380620035f28339818101604052810190620000379190620002a7565b828281600090805190602001906200005192919062000185565b5080600190805190602001906200006a92919062000185565b5050506200008d62000081620000b760201b60201c565b620000bf60201b60201c565b8060089080519060200190620000a592919062000185565b50600060078190555050505062000479565b600033905090565b6000600660009054906101000a900473ffffffffffffffffffffffffffffffffffffffff16905081600660006101000a81548173ffffffffffffffffffffffffffffffffffffffff021916908373ffffffffffffffffffffffffffffffffffffffff1602179055508173ffffffffffffffffffffffffffffffffffffffff168173ffffffffffffffffffffffffffffffffffffffff167f8be0079c531659141344cd1fd0a4f28419497f9722a3daafe3b4186f6b6457e060405160405180910390a35050565b8280546200019390620003e5565b90600052602060002090601f016020900481019282620001b7576000855562000203565b82601f10620001d257805160ff191683800117855562000203565b8280016001018555821562000203579182015b8281111562000202578251825591602001919060010190620001e5565b5b50905062000212919062000216565b5090565b5b808211156200023157600081600090555060010162000217565b5090565b60006200024c62000246846200037c565b62000348565b9050828152602081018484840111156200026557600080fd5b62000272848285620003af565b509392505050565b600082601f8301126200028c57600080fd5b81516200029e84826020860162000235565b91505092915050565b600080600060608486031215620002bd57600080fd5b600084015167ffffffffffffffff811115620002d857600080fd5b620002e6868287016200027a565b935050602084015167ffffffffffffffff8111156200030457600080fd5b62000312868287016200027a565b925050604084015167ffffffffffffffff8111156200033057600080fd5b6200033e868287016200027a565b9150509250925092565b6000604051905081810181811067ffffffffffffffff821117156200037257620003716200044a565b5b8060405250919050565b600067ffffffffffffffff8211156200039a57620003996200044a565b5b601f19601f8301169050602081019050919050565b60005b83811015620003cf578082015181840152602081019050620003b2565b83811115620003df576000848401525b50505050565b60006002820490506001821680620003fe57607f821691505b602082108114156200041557620004146200041b565b5b50919050565b7f4e487b7100000000000000000000000000000000000000000000000000000000600052602260045260246000fd5b7f4e487b7100000000000000000000000000000000000000000000000000000000600052604160045260246000fd5b61316980620004896000396000f3fe60806040526004361061011f5760003560e01c80636352211e116100a0578063a22cb46511610064578063a22cb465146103d8578063b88d4fde14610401578063c87b56dd1461042a578063e985e9c514610467578063f2fde38b146104a45761011f565b80636352211e146102f157806370a082311461032e578063715018a61461036b5780638da5cb5b1461038257806395d89b41146103ad5761011f565b806318160ddd116100e757806318160ddd1461022f57806323b872dd1461025a57806340c10f191461028357806342842e0e1461029f57806355f804b3146102c85761011f565b806301ffc9a71461012457806306fdde0314610161578063081812fc1461018c578063095ea7b3146101c957806318148f1b146101f2575b600080fd5b34801561013057600080fd5b5061014b60048036038101906101469190612142565b6104cd565b6040516101589190612a48565b60405180910390f35b34801561016d57600080fd5b506101766105af565b6040516101839190612a63565b60405180910390f35b34801561019857600080fd5b506101b360048036038101906101ae91906121d5565b610641565b6040516101c091906129bf565b60405180910390f35b3480156101d557600080fd5b506101f060048036038101906101eb9190612106565b6106c6565b005b3480156101fe57600080fd5b5061021960048036038101906102149190611f9b565b6107de565b6040516102269190612a26565b60405180910390f35b34801561023b57600080fd5b50610244610875565b6040516102519190612cc5565b60405180910390f35b34801561026657600080fd5b50610281600480360381019061027c9190612000565b61087f565b005b61029d60048036038101906102989190612106565b6108df565b005b3480156102ab57600080fd5b506102c660048036038101906102c19190612000565b610a1b565b005b3480156102d457600080fd5b506102ef60048036038101906102ea9190612194565b610a3b565b005b3480156102fd57600080fd5b50610318600480360381019061031391906121d5565b610ad1565b60405161032591906129bf565b60405180910390f35b34801561033a57600080fd5b5061035560048036038101906103509190611f9b565b610b83565b6040516103629190612cc5565b60405180910390f35b34801561037757600080fd5b50610380610c3b565b005b34801561038e57600080fd5b50610397610cc3565b6040516103a491906129bf565b60405180910390f35b3480156103b957600080fd5b506103c2610ced565b6040516103cf9190612a63565b60405180910390f35b3480156103e457600080fd5b506103ff60048036038101906103fa91906120ca565b610d7f565b005b34801561040d57600080fd5b506104286004803603810190610423919061204f565b610d95565b005b34801561043657600080fd5b50610451600480360381019061044c91906121d5565b610df7565b60405161045e9190612a63565b60405180910390f35b34801561047357600080fd5b5061048e60048036038101906104899190611fc4565b610e9e565b60405161049b9190612a48565b60405180910390f35b3480156104b057600080fd5b506104cb60048036038101906104c69190611f9b565b610f32565b005b60007f80ac58cd000000000000000000000000000000000000000000000000000000007bffffffffffffffffffffffffffffffffffffffffffffffffffffffff1916827bffffffffffffffffffffffffffffffffffffffffffffffffffffffff1916148061059857507f5b5e139f000000000000000000000000000000000000000000000000000000007bffffffffffffffffffffffffffffffffffffffffffffffffffffffff1916827bffffffffffffffffffffffffffffffffffffffffffffffffffffffff1916145b806105a857506105a78261102a565b5b9050919050565b6060600080546105be90612f5e565b80601f01602080910402602001604051908101604052809291908181526020018280546105ea90612f5e565b80156106375780601f1061060c57610100808354040283529160200191610637565b820191906000526020600020905b81548152906001019060200180831161061a57829003601f168201915b5050505050905090565b600061064c82611094565b61068b576040517f08c379a000000000000000000000000000000000000000000000000000000000815260040161068290612c05565b60405180910390fd5b6004600083815260200190815260200160002060009054906101000a900473ffffffffffffffffffffffffffffffffffffffff169050919050565b60006106d182610ad1565b90508073ffffffffffffffffffffffffffffffffffffffff168373ffffffffffffffffffffffffffffffffffffffff161415610742576040517f08c379a000000000000000000000000000000000000000000000000000000000815260040161073990612c85565b60405180910390fd5b8073ffffffffffffffffffffffffffffffffffffffff16610761611100565b73ffffffffffffffffffffffffffffffffffffffff161480610790575061078f8161078a611100565b610e9e565b5b6107cf576040517f08c379a00000000000000000000000000000000000000000000000000000000081526004016107c690612b85565b60405180910390fd5b6107d98383611108565b505050565b6060600960008373ffffffffffffffffffffffffffffffffffffffff1673ffffffffffffffffffffffffffffffffffffffff16815260200190815260200160002080548060200260200160405190810160405280929190818152602001828054801561086957602002820191906000526020600020905b815481526020019060010190808311610855575b50505050509050919050565b6000600754905090565b61089061088a611100565b826111c1565b6108cf576040517f08c379a00000000000000000000000000000000000000000000000000000000081526004016108c690612ca5565b60405180910390fd5b6108da83838361129f565b505050565b600a811115610923576040517f08c379a000000000000000000000000000000000000000000000000000000000815260040161091a90612aa5565b60405180910390fd5b655af3107a400034101561096c576040517f08c379a000000000000000000000000000000000000000000000000000000000815260040161096390612b45565b60405180910390fd5b60005b81811015610a1657610983836007546114fb565b600960008473ffffffffffffffffffffffffffffffffffffffff1673ffffffffffffffffffffffffffffffffffffffff1681526020019081526020016000206007549080600181540180825580915050600190039060005260206000200160009091909190915055600760008154809291906109fe90612f90565b91905055508080610a0e90612f90565b91505061096f565b505050565b610a3683838360405180602001604052806000815250610d95565b505050565b610a43611100565b73ffffffffffffffffffffffffffffffffffffffff16610a61610cc3565b73ffffffffffffffffffffffffffffffffffffffff1614610ab7576040517f08c379a0000000000000000000000000000000000000000000000000000000008152600401610aae90612c25565b60405180910390fd5b8060089080519060200190610acd929190611dbf565b5050565b6000806002600084815260200190815260200160002060009054906101000a900473ffffffffffffffffffffffffffffffffffffffff169050600073ffffffffffffffffffffffffffffffffffffffff168173ffffffffffffffffffffffffffffffffffffffff161415610b7a576040517f08c379a0000000000000000000000000000000000000000000000000000000008152600401610b7190612bc5565b60405180910390fd5b80915050919050565b60008073ffffffffffffffffffffffffffffffffffffffff168273ffffffffffffffffffffffffffffffffffffffff161415610bf4576040517f08c379a0000000000000000000000000000000000000000000000000000000008152600401610beb90612ba5565b60405180910390fd5b600360008373ffffffffffffffffffffffffffffffffffffffff1673ffffffffffffffffffffffffffffffffffffffff168152602001908152602001600020549050919050565b610c43611100565b73ffffffffffffffffffffffffffffffffffffffff16610c61610cc3565b73ffffffffffffffffffffffffffffffffffffffff1614610cb7576040517f08c379a0000000000000000000000000000000000000000000000000000000008152600401610cae90612c25565b60405180910390fd5b610cc16000611519565b565b6000600660009054906101000a900473ffffffffffffffffffffffffffffffffffffffff16905090565b606060018054610cfc90612f5e565b80601f0160208091040260200160405190810160405280929190818152602001828054610d2890612f5e565b8015610d755780601f10610d4a57610100808354040283529160200191610d75565b820191906000526020600020905b815481529060010190602001808311610d5857829003601f168201915b5050505050905090565b610d91610d8a611100565b83836115df565b5050565b610da6610da0611100565b836111c1565b610de5576040517f08c379a0000000000000000000000000000000000000000000000000000000008152600401610ddc90612ca5565b60405180910390fd5b610df18484848461174c565b50505050565b6060610e0282611094565b610e41576040517f08c379a0000000000000000000000000000000000000000000000000000000008152600401610e3890612c65565b60405180910390fd5b6000610e4b6117a8565b90506000815111610e6b5760405180602001604052806000815250610e96565b80610e758461183a565b604051602001610e8692919061299b565b6040516020818303038152906040525b915050919050565b6000600560008473ffffffffffffffffffffffffffffffffffffffff1673ffffffffffffffffffffffffffffffffffffffff16815260200190815260200160002060008373ffffffffffffffffffffffffffffffffffffffff1673ffffffffffffffffffffffffffffffffffffffff16815260200190815260200160002060009054906101000a900460ff16905092915050565b610f3a611100565b73ffffffffffffffffffffffffffffffffffffffff16610f58610cc3565b73ffffffffffffffffffffffffffffffffffffffff1614610fae576040517f08c379a0000000000000000000000000000000000000000000000000000000008152600401610fa590612c25565b60405180910390fd5b600073ffffffffffffffffffffffffffffffffffffffff168173ffffffffffffffffffffffffffffffffffffffff16141561101e576040517f08c379a000000000000000000000000000000000000000000000000000000000815260040161101590612ac5565b60405180910390fd5b61102781611519565b50565b60007f01ffc9a7000000000000000000000000000000000000000000000000000000007bffffffffffffffffffffffffffffffffffffffffffffffffffffffff1916827bffffffffffffffffffffffffffffffffffffffffffffffffffffffff1916149050919050565b60008073ffffffffffffffffffffffffffffffffffffffff166002600084815260200190815260200160002060009054906101000a900473ffffffffffffffffffffffffffffffffffffffff1673ffffffffffffffffffffffffffffffffffffffff1614159050919050565b600033905090565b816004600083815260200190815260200160002060006101000a81548173ffffffffffffffffffffffffffffffffffffffff021916908373ffffffffffffffffffffffffffffffffffffffff160217905550808273ffffffffffffffffffffffffffffffffffffffff1661117b83610ad1565b73ffffffffffffffffffffffffffffffffffffffff167f8c5be1e5ebec7d5bd14f71427d1e84f3dd0314c0f7b2291e5b200ac8c7c3b92560405160405180910390a45050565b60006111cc82611094565b61120b576040517f08c379a000000000000000000000000000000000000000000000000000000000815260040161120290612b65565b60405180910390fd5b600061121683610ad1565b90508073ffffffffffffffffffffffffffffffffffffffff168473ffffffffffffffffffffffffffffffffffffffff16148061128557508373ffffffffffffffffffffffffffffffffffffffff1661126d84610641565b73ffffffffffffffffffffffffffffffffffffffff16145b8061129657506112958185610e9e565b5b91505092915050565b8273ffffffffffffffffffffffffffffffffffffffff166112bf82610ad1565b73ffffffffffffffffffffffffffffffffffffffff1614611315576040517f08c379a000000000000000000000000000000000000000000000000000000000815260040161130c90612c45565b60405180910390fd5b600073ffffffffffffffffffffffffffffffffffffffff168273ffffffffffffffffffffffffffffffffffffffff161415611385576040517f08c379a000000000000000000000000000000000000000000000000000000000815260040161137c90612b05565b60405180910390fd5b6113908383836119e7565b61139b600082611108565b6001600360008573ffffffffffffffffffffffffffffffffffffffff1673ffffffffffffffffffffffffffffffffffffffff16815260200190815260200160002060008282546113eb9190612e74565b925050819055506001600360008473ffffffffffffffffffffffffffffffffffffffff1673ffffffffffffffffffffffffffffffffffffffff16815260200190815260200160002060008282546114429190612ded565b92505081905550816002600083815260200190815260200160002060006101000a81548173ffffffffffffffffffffffffffffffffffffffff021916908373ffffffffffffffffffffffffffffffffffffffff160217905550808273ffffffffffffffffffffffffffffffffffffffff168473ffffffffffffffffffffffffffffffffffffffff167fddf252ad1be2c89b69c2b068fc378daa952ba7f163c4a11628f55a4df523b3ef60405160405180910390a4505050565b6115158282604051806020016040528060008152506119ec565b5050565b6000600660009054906101000a900473ffffffffffffffffffffffffffffffffffffffff16905081600660006101000a81548173ffffffffffffffffffffffffffffffffffffffff021916908373ffffffffffffffffffffffffffffffffffffffff1602179055508173ffffffffffffffffffffffffffffffffffffffff168173ffffffffffffffffffffffffffffffffffffffff167f8be0079c531659141344cd1fd0a4f28419497f9722a3daafe3b4186f6b6457e060405160405180910390a35050565b8173ffffffffffffffffffffffffffffffffffffffff168373ffffffffffffffffffffffffffffffffffffffff16141561164e576040517f08c379a000000000000000000000000000000000000000000000000000000000815260040161164590612b25565b60405180910390fd5b80600560008573ffffffffffffffffffffffffffffffffffffffff1673ffffffffffffffffffffffffffffffffffffffff16815260200190815260200160002060008473ffffffffffffffffffffffffffffffffffffffff1673ffffffffffffffffffffffffffffffffffffffff16815260200190815260200160002060006101000a81548160ff0219169083151502179055508173ffffffffffffffffffffffffffffffffffffffff168373ffffffffffffffffffffffffffffffffffffffff167f17307eab39ab6107e8899845ad3d59bd9653f200f220920489ca2b5937696c318360405161173f9190612a48565b60405180910390a3505050565b61175784848461129f565b61176384848484611a47565b6117a2576040517f08c379a000000000000000000000000000000000000000000000000000000000815260040161179990612a85565b60405180910390fd5b50505050565b6060600880546117b790612f5e565b80601f01602080910402602001604051908101604052809291908181526020018280546117e390612f5e565b80156118305780601f1061180557610100808354040283529160200191611830565b820191906000526020600020905b81548152906001019060200180831161181357829003601f168201915b5050505050905090565b60606000821415611882576040518060400160405280600181526020017f300000000000000000000000000000000000000000000000000000000000000081525090506119e2565b600082905060005b600082146118b457808061189d90612f90565b915050600a826118ad9190612e43565b915061188a565b60008167ffffffffffffffff8111156118f6577f4e487b7100000000000000000000000000000000000000000000000000000000600052604160045260246000fd5b6040519080825280601f01601f1916602001820160405280156119285781602001600182028036833780820191505090505b5090505b600085146119db576001826119419190612e74565b9150600a856119509190612fd9565b603061195c9190612ded565b60f81b818381518110611998577f4e487b7100000000000000000000000000000000000000000000000000000000600052603260045260246000fd5b60200101907effffffffffffffffffffffffffffffffffffffffffffffffffffffffffffff1916908160001a905350600a856119d49190612e43565b945061192c565b8093505050505b919050565b505050565b6119f68383611bde565b611a036000848484611a47565b611a42576040517f08c379a0000000000000000000000000000000000000000000000000000000008152600401611a3990612a85565b60405180910390fd5b505050565b6000611a688473ffffffffffffffffffffffffffffffffffffffff16611dac565b15611bd1578373ffffffffffffffffffffffffffffffffffffffff1663150b7a02611a91611100565b8786866040518563ffffffff1660e01b8152600401611ab394939291906129da565b602060405180830381600087803b158015611acd57600080fd5b505af1925050508015611afe57506040513d601f19601f82011682018060405250810190611afb919061216b565b60015b611b81573d8060008114611b2e576040519150601f19603f3d011682016040523d82523d6000602084013e611b33565b606091505b50600081511415611b79576040517f08c379a0000000000000000000000000000000000000000000000000000000008152600401611b7090612a85565b60405180910390fd5b805181602001fd5b63150b7a0260e01b7bffffffffffffffffffffffffffffffffffffffffffffffffffffffff1916817bffffffffffffffffffffffffffffffffffffffffffffffffffffffff191614915050611bd6565b600190505b949350505050565b600073ffffffffffffffffffffffffffffffffffffffff168273ffffffffffffffffffffffffffffffffffffffff161415611c4e576040517f08c379a0000000000000000000000000000000000000000000000000000000008152600401611c4590612be5565b60405180910390fd5b611c5781611094565b15611c97576040517f08c379a0000000000000000000000000000000000000000000000000000000008152600401611c8e90612ae5565b60405180910390fd5b611ca3600083836119e7565b6001600360008473ffffffffffffffffffffffffffffffffffffffff1673ffffffffffffffffffffffffffffffffffffffff1681526020019081526020016000206000828254611cf39190612ded565b92505081905550816002600083815260200190815260200160002060006101000a81548173ffffffffffffffffffffffffffffffffffffffff021916908373ffffffffffffffffffffffffffffffffffffffff160217905550808273ffffffffffffffffffffffffffffffffffffffff16600073ffffffffffffffffffffffffffffffffffffffff167fddf252ad1be2c89b69c2b068fc378daa952ba7f163c4a11628f55a4df523b3ef60405160405180910390a45050565b600080823b905060008111915050919050565b828054611dcb90612f5e565b90600052602060002090601f016020900481019282611ded5760008555611e34565b82601f10611e0657805160ff1916838001178555611e34565b82800160010185558215611e34579182015b82811115611e33578251825591602001919060010190611e18565b5b509050611e419190611e45565b5090565b5b80821115611e5e576000816000905550600101611e46565b5090565b6000611e75611e7084612d11565b612ce0565b905082815260208101848484011115611e8d57600080fd5b611e98848285612f1c565b509392505050565b6000611eb3611eae84612d41565b612ce0565b905082815260208101848484011115611ecb57600080fd5b611ed6848285612f1c565b509392505050565b600081359050611eed816130d7565b92915050565b600081359050611f02816130ee565b92915050565b600081359050611f1781613105565b92915050565b600081519050611f2c81613105565b92915050565b600082601f830112611f4357600080fd5b8135611f53848260208601611e62565b91505092915050565b600082601f830112611f6d57600080fd5b8135611f7d848260208601611ea0565b91505092915050565b600081359050611f958161311c565b92915050565b600060208284031215611fad57600080fd5b6000611fbb84828501611ede565b91505092915050565b60008060408385031215611fd757600080fd5b6000611fe585828601611ede565b9250506020611ff685828601611ede565b9150509250929050565b60008060006060848603121561201557600080fd5b600061202386828701611ede565b935050602061203486828701611ede565b925050604061204586828701611f86565b9150509250925092565b6000806000806080858703121561206557600080fd5b600061207387828801611ede565b945050602061208487828801611ede565b935050604061209587828801611f86565b925050606085013567ffffffffffffffff8111156120b257600080fd5b6120be87828801611f32565b91505092959194509250565b600080604083850312156120dd57600080fd5b60006120eb85828601611ede565b92505060206120fc85828601611ef3565b9150509250929050565b6000806040838503121561211957600080fd5b600061212785828601611ede565b925050602061213885828601611f86565b9150509250929050565b60006020828403121561215457600080fd5b600061216284828501611f08565b91505092915050565b60006020828403121561217d57600080fd5b600061218b84828501611f1d565b91505092915050565b6000602082840312156121a657600080fd5b600082013567ffffffffffffffff8111156121c057600080fd5b6121cc84828501611f5c565b91505092915050565b6000602082840312156121e757600080fd5b60006121f584828501611f86565b91505092915050565b600061220a838361297d565b60208301905092915050565b61221f81612ea8565b82525050565b600061223082612d81565b61223a8185612daf565b935061224583612d71565b8060005b8381101561227657815161225d88826121fe565b975061226883612da2565b925050600181019050612249565b5085935050505092915050565b61228c81612eba565b82525050565b600061229d82612d8c565b6122a78185612dc0565b93506122b7818560208601612f2b565b6122c0816130c6565b840191505092915050565b60006122d682612d97565b6122e08185612dd1565b93506122f0818560208601612f2b565b6122f9816130c6565b840191505092915050565b600061230f82612d97565b6123198185612de2565b9350612329818560208601612f2b565b80840191505092915050565b6000612342603283612dd1565b91507f4552433732313a207472616e7366657220746f206e6f6e20455243373231526560008301527f63656976657220696d706c656d656e74657200000000000000000000000000006020830152604082019050919050565b60006123a8601b83612dd1565b91507f45786365656473206d6178696d756d20746f6b656e206c696d697400000000006000830152602082019050919050565b60006123e8602683612dd1565b91507f4f776e61626c653a206e6577206f776e657220697320746865207a65726f206160008301527f64647265737300000000000000000000000000000000000000000000000000006020830152604082019050919050565b600061244e601c83612dd1565b91507f4552433732313a20746f6b656e20616c7265616479206d696e746564000000006000830152602082019050919050565b600061248e602483612dd1565b91507f4552433732313a207472616e7366657220746f20746865207a65726f2061646460008301527f72657373000000000000000000000000000000000000000000000000000000006020830152604082019050919050565b60006124f4601983612dd1565b91507f4552433732313a20617070726f766520746f2063616c6c6572000000000000006000830152602082019050919050565b6000612534601483612dd1565b91507f496e73756666696369656e742062616c616e63650000000000000000000000006000830152602082019050919050565b6000612574602c83612dd1565b91507f4552433732313a206f70657261746f7220717565727920666f72206e6f6e657860008301527f697374656e7420746f6b656e00000000000000000000000000000000000000006020830152604082019050919050565b60006125da603883612dd1565b91507f4552433732313a20617070726f76652063616c6c6572206973206e6f74206f7760008301527f6e6572206e6f7220617070726f76656420666f7220616c6c00000000000000006020830152604082019050919050565b6000612640602a83612dd1565b91507f4552433732313a2062616c616e636520717565727920666f7220746865207a6560008301527f726f2061646472657373000000000000000000000000000000000000000000006020830152604082019050919050565b60006126a6602983612dd1565b91507f4552433732313a206f776e657220717565727920666f72206e6f6e657869737460008301527f656e7420746f6b656e00000000000000000000000000000000000000000000006020830152604082019050919050565b600061270c602083612dd1565b91507f4552433732313a206d696e7420746f20746865207a65726f20616464726573736000830152602082019050919050565b600061274c602c83612dd1565b91507f4552433732313a20617070726f76656420717565727920666f72206e6f6e657860008301527f697374656e7420746f6b656e00000000000000000000000000000000000000006020830152604082019050919050565b60006127b2602083612dd1565b91507f4f776e61626c653a2063616c6c6572206973206e6f7420746865206f776e65726000830152602082019050919050565b60006127f2602983612dd1565b91507f4552433732313a207472616e73666572206f6620746f6b656e2074686174206960008301527f73206e6f74206f776e00000000000000000000000000000000000000000000006020830152604082019050919050565b6000612858602f83612dd1565b91507f4552433732314d657461646174613a2055524920717565727920666f72206e6f60008301527f6e6578697374656e7420746f6b656e00000000000000000000000000000000006020830152604082019050919050565b60006128be602183612dd1565b91507f4552433732313a20617070726f76616c20746f2063757272656e74206f776e6560008301527f72000000000000000000000000000000000000000000000000000000000000006020830152604082019050919050565b6000612924603183612dd1565b91507f4552433732313a207472616e736665722063616c6c6572206973206e6f74206f60008301527f776e6572206e6f7220617070726f7665640000000000000000000000000000006020830152604082019050919050565b61298681612f12565b82525050565b61299581612f12565b82525050565b60006129a78285612304565b91506129b38284612304565b91508190509392505050565b60006020820190506129d46000830184612216565b92915050565b60006080820190506129ef6000830187612216565b6129fc6020830186612216565b612a09604083018561298c565b8181036060830152612a1b8184612292565b905095945050505050565b60006020820190508181036000830152612a408184612225565b905092915050565b6000602082019050612a5d6000830184612283565b92915050565b60006020820190508181036000830152612a7d81846122cb565b905092915050565b60006020820190508181036000830152612a9e81612335565b9050919050565b60006020820190508181036000830152612abe8161239b565b9050919050565b60006020820190508181036000830152612ade816123db565b9050919050565b60006020820190508181036000830152612afe81612441565b9050919050565b60006020820190508181036000830152612b1e81612481565b9050919050565b60006020820190508181036000830152612b3e816124e7565b9050919050565b60006020820190508181036000830152612b5e81612527565b9050919050565b60006020820190508181036000830152612b7e81612567565b9050919050565b60006020820190508181036000830152612b9e816125cd565b9050919050565b60006020820190508181036000830152612bbe81612633565b9050919050565b60006020820190508181036000830152612bde81612699565b9050919050565b60006020820190508181036000830152612bfe816126ff565b9050919050565b60006020820190508181036000830152612c1e8161273f565b9050919050565b60006020820190508181036000830152612c3e816127a5565b9050919050565b60006020820190508181036000830152612c5e816127e5565b9050919050565b60006020820190508181036000830152612c7e8161284b565b9050919050565b60006020820190508181036000830152612c9e816128b1565b9050919050565b60006020820190508181036000830152612cbe81612917565b9050919050565b6000602082019050612cda600083018461298c565b92915050565b6000604051905081810181811067ffffffffffffffff82111715612d0757612d06613097565b5b8060405250919050565b600067ffffffffffffffff821115612d2c57612d2b613097565b5b601f19601f8301169050602081019050919050565b600067ffffffffffffffff821115612d5c57612d5b613097565b5b601f19601f8301169050602081019050919050565b6000819050602082019050919050565b600081519050919050565b600081519050919050565b600081519050919050565b6000602082019050919050565b600082825260208201905092915050565b600082825260208201905092915050565b600082825260208201905092915050565b600081905092915050565b6000612df882612f12565b9150612e0383612f12565b9250827fffffffffffffffffffffffffffffffffffffffffffffffffffffffffffffffff03821115612e3857612e3761300a565b5b828201905092915050565b6000612e4e82612f12565b9150612e5983612f12565b925082612e6957612e68613039565b5b828204905092915050565b6000612e7f82612f12565b9150612e8a83612f12565b925082821015612e9d57612e9c61300a565b5b828203905092915050565b6000612eb382612ef2565b9050919050565b60008115159050919050565b60007fffffffff0000000000000000000000000000000000000000000000000000000082169050919050565b600073ffffffffffffffffffffffffffffffffffffffff82169050919050565b6000819050919050565b82818337600083830152505050565b60005b83811015612f49578082015181840152602081019050612f2e565b83811115612f58576000848401525b50505050565b60006002820490506001821680612f7657607f821691505b60208210811415612f8a57612f89613068565b5b50919050565b6000612f9b82612f12565b91507fffffffffffffffffffffffffffffffffffffffffffffffffffffffffffffffff821415612fce57612fcd61300a565b5b600182019050919050565b6000612fe482612f12565b9150612fef83612f12565b925082612fff57612ffe613039565b5b828206905092915050565b7f4e487b7100000000000000000000000000000000000000000000000000000000600052601160045260246000fd5b7f4e487b7100000000000000000000000000000000000000000000000000000000600052601260045260246000fd5b7f4e487b7100000000000000000000000000000000000000000000000000000000600052602260045260246000fd5b7f4e487b7100000000000000000000000000000000000000000000000000000000600052604160045260246000fd5b6000601f19601f8301169050919050565b6130e081612ea8565b81146130eb57600080fd5b50565b6130f781612eba565b811461310257600080fd5b50565b61310e81612ec6565b811461311957600080fd5b50565b61312581612f12565b811461313057600080fd5b5056fea26469706673582212209a97e376b9f0c7bfb9687195434fed61926001cc4e689b15783db1b56c102c2a64736f6c63430008000033",
  "linkReferences": {},
  "deployedLinkReferences": {}
}